:020000040800F2
:10000000E8070020A9010008B53C0008993600085F
:1000100000000000000000000000000000000000E0
:10002000000000000000000000000000B93C0008D3
:100030000000000000000000B73C00085D3E000822
:10004000BB010008BB010008BB010008BB010008A0
:10005000BB010008BB010008BB010008BB01000890
:10006000BB010008BB010008BB010008BB01000880
:10007000BB010008BB010008BB010008BB01000870
:10008000BB010008BB010008BB0100080000000024
:10009000BB010008BB010008BB010008BB01000850
:1000A000BB010008BB010008BB010008BB01000840
:1000B000BB010008BB010008BB010008BB01000830
:1000C00000F002F800F061F812A030C808382418D7
:1000D0002D18AC4201D100F058F80FCCA246AB4627
:1000E0000CA730CF2D1B083F3F197C427F1E544484
:1000F0002D090426F441641EAC4201D300F045F8FA
:100100000126334200D0FB1A3343984754465D46DC
:10011000DFE70000E850000008510000103A02D369
:1001200078C878C1FAD8520701D330C830C101D598
:1001300004680C6070470000704700000023002432
:1001400000250026103A01D378C1FBD8520700D30E
:1001500030C100D50B60704710B5662902D104F09C
:1001600097FF10BD782902D100F036F910BD0020AC
:1001700010BD1FB500F0CCFE04000020002104F0EB
:10018000C3FEE0601FBD10B510BD01F08BFA114633
:10019000FFF7EFFF04F02CF901F0A3FA03B4FFF727
:1001A000F2FF03BC01F0FEFA07488047074800470A
:1001B000FEE7FEE7FEE7FEE7FEE7FEE70448054947
:1001C000054A064B70470000653E0008C100000864
:1001D000E8010020E8070020E8030020E8030020F1
:1001E0004343514330B55C18010C130C0D4692B2D9
:1001F0005D4380B251432C19054655430A0C09044E
:100200004D1962415843010C00044019514130BD61
:10021000FEB5044610460D46184373D0A6468C46DC
:100220000020A41A01469D4167D366460027012499
:100230003D46B61A9D4102D313463A4621246546EF
:1002400076462F04360C3E432D0CB61A9D4104D33E
:10025000150C1B042B4312041034654676462F06FA
:10026000360A3E432D0AB61A9D4104D3150E1B02D1
:100270002B4312020834654676462F0736093E4363
:100280002D09B61A9D4104D3150F1B012B431201F2
:10029000241D65467646AF07B6083E43AD08B61A3C
:1002A0009D4104D3950F9B002B439200A41C6546EF
:1002B0007646EF0776083E436D08B61A9D411AD37D
:1002C00092185B41641C16E0001876466546494169
:1002D000B71A9D410191009009D36046B11A984127
:1002E0008E468446009801990025401C6941DD072F
:1002F00052082A435B08641EE6D57246634603B083
:10030000F0BDFFE72046284307D00020C043014648
:10031000C046C04622462B46F1E700200146F7E7DB
:100320000FB41CB5074B06AA7B446946009005989C
:1003300000F0CDFD0020694600F0DCFD1CBC08BCCF
:1003400004B01847C90B00000FB41CB50C0007AA75
:10035000009007D04142A14202D30019401E01E0A3
:100360000020C043074B7B4469460190069800F08B
:10037000AEFD0020002C01D0009908701CBC08BC08
:1003800004B01847950B000070B5044685690068F5
:10039000C10601D5302600E02026C00707D070BD79
:1003A00062683046A1689047206A401C20626D1E3A
:1003B000F6D570BD70B5044685690078C00707D1D1
:1003C00070BD6268A16820209047206A401C2062AE
:1003D0006D1EF6D570BD000070B504460D46214671
:1003E0001068C046C0462188090502D50F4A7A44E4
:1003F00002E00E4A7A440E3223460021243305E0FF
:1004000006070009360F965D5E54491C0028F7D197
:1004100020780023000705D5702D03D0002901D0D6
:1004200002231132204600F0EAFA70BDAE4C000003
:10043000F3B50446002081B020622046E168884779
:1004400000287DD0252802D06268A16883E0454F4E
:1004500000257F442046E16888472028064608DBBF
:10046000312E06D2B81920380078002801D0054373
:10047000F0E7A80701D5042085430020E061074686
:10048000A0612A2E0AD0304604F036FD002827D07D
:10049000B8000019303E0090866119E00298BA0059
:1004A000121902C8916102902046E1688847012F25
:1004B000064617D1E06900281FDA202085431CE09A
:1004C00000980A2180694843009980193038886172
:1004D0002046E1688847064604F00EFD0028EFD16B
:1004E000012F0AD02E2E08D12046E1688847064603
:1004F000202005437F1C022FC3DBA069002803DAFC
:100500004042A06101200543E80701D01020854347
:10051000002E24D030464138192803D80120C002CB
:1005200005432036204625603146029A1546FFF7DE
:1005300013FE00280CD0012807D0ED1DE80800E0CC
:100540000DE0C0000830029077E72D1D029574E79A
:1005500062683046A1689047206A401C6CE7206AB8
:10056000FEBD0000724C000030B5441C03E0017871
:10057000401C00290DD08107F9D10B4BDD0104C8C7
:10058000D11A91432940FAD0001B0A0603D0C01E9D
:1005900030BD001B30BD0A0401D0801E30BD0902F1
:1005A000FCD0401E30BD00000101010101E004C08B
:1005B000091F0429FBD28B0701D50280801CC907C3
:1005C00000D00270704700290BD0C30702D0027020
:1005D000401C491E022904D3830702D50280801CD7
:1005E000891EE3E70022EEE70022DFE7002203098D
:1005F0008B4273D3030A8B4258D3030B8B423CD3F9
:10060000030C8B4221D312E003460B437FD400221C
:1006100043088B4274D303098B425FD3030A8B4296
:1006200044D3030B8B4228D3030C8B420DD3090216
:10063000FF2212BA030C8B4202D31212090265D0B8
:10064000030B8B4219D300E0090AC30B8B4201D381
:10065000CB03C01A5241830B8B4201D38B03C01AC8
:100660005241430B8B4201D34B03C01A5241030B3F
:100670008B4201D30B03C01A5241C30A8B4201D3F0
:10068000CB02C01A5241830A8B4201D38B02C01A9B
:100690005241430A8B4201D34B02C01A5241030A12
:1006A0008B4201D30B02C01A5241CDD2C3098B42F7
:1006B00001D3CB01C01A524183098B4201D38B0174
:1006C000C01A524143098B4201D34B01C01A524117
:1006D00003098B4201D30B01C01A5241C3088B425C
:1006E00001D3CB00C01A524183088B4201D38B0047
:1006F000C01A524143088B4201D34B00C01A5241E9
:10070000411A00D201465241104670475DE0CA0FBF
:1007100000D04942031000D3404253409C4600227F
:1007200003098B422DD3030A8B4212D38901FC2289
:1007300012BA030A8B420CD3890192118B4208D35F
:10074000890192118B4204D389013AD0921100E0C1
:100750008909C3098B4201D3CB01C01A52418309D5
:100760008B4201D38B01C01A524143098B4201D302
:100770004B01C01A524103098B4201D30B01C01A2D
:100780005241C3088B4201D3CB00C01A52418308A7
:100790008B4201D38B00C01A5241D9D243088B42FD
:1007A00001D34B00C01A5241411A00D201465241B6
:1007B000104663465B1001D34042002B00D54942EE
:1007C000704763465B1000D3404201B504490028DE
:1007D00002DC491C084000E00846C046C04602BD95
:1007E000FFFFFF7F70477047704700000121C90578
:1007F0000123411842001B06D3185B0E0AD0C1101A
:100800000722D206891840075242D14201D5520030
:1008100089187047090208D50146002A03D0C10F84
:10082000C9070020704710467047420202D00020DE
:1008300002497047072109050143F4E70000F87FEA
:10084000F0B5FF252D04C609C209FF2704462E4036
:100850000137CB093E4348402A402B400746002A37
:100860006BD0002B69D0AA4267D0AB4265D000287C
:1008700000DA32460125ED0529432C430902200206
:10088000090AD21A4B0C7F24E31A434C000A7C4419
:10089000E35C7D242404121914145B00A21888421E
:1008A00001D3521C00E0400049420C465C43241135
:1008B0005C43DB016415E318040A5C43C502200DA8
:1008C0000C4644436419250A5D432303EC0C0D4692
:1008D000654300030019EB184C42A34201D35B1897
:1008E000401CD4052018002B07D05B00C91804D386
:1008F000401C002901D1400840003F2189048A4260
:1009000009D3002A08DC1106090F04D00321490786
:100910004018C00FC007F0BD01224100120689181F
:100920007F2252069142F6D205214907C84201D5DD
:100930009010F0BDFF20C005F0BD002F00DA324658
:100940001648AA4207D2AB4205D21902090E17D0A7
:10095000F80FC007F0BDFF2563002D06AB42F9D8A4
:100960004900A942F6D8AB4201D1A942F2D0A9422E
:1009700001D1002101E061004908D0050843F0BD24
:100980001102090EFBD0FF200243D005F0BD0A463C
:100990000146104654E70000474800000000C07FB1
:1009A0001F22030C02D10F2200041CD0030E01D120
:1009B0000002083A030F01D10001121F830F01D179
:1009C0008000921E002801DB4000521ED205511803
:1009D000021251181922904004D3491C002801D159
:1009E0004908490008467047C10FC90700D0404276
:1009F000012292071143D3E701218907D0E7FFB510
:100A000004460D4681B0243000902168880604D544
:100A10001022E0699143216000E00120A84201DD3D
:100A2000471B00E000270498A1697A191018081ADA
:100A3000A0612078C00602D42046FFF7A5FC00265E
:100A400008E003986268A168805D9047206A401CB6
:100A5000761C206204988642F3DB2078C0060AD513
:100A60002046FFF791FC06E06268A16830209047BD
:100A7000206A401C206238467F1E0028F4DC07E014
:100A800000986268A168405D9047206A401C20621F
:100A900028466D1E0028F3DC2046FFF78BFC2078EB
:100AA000000602D5022005B0F0BD0120FBE70000E2
:100AB000FFB50C461E468FB003CA089009914F003F
:100AC0007D0D00D16D1E002108460020C046032187
:100AD000099A89050840002A03DA82008018400834
:100AE0000840800D01280A9002DD0020C0430A90D2
:100AF000089807430DD0F048F049281848430714D8
:100B0000189800281DD07542291E1DDD0A98424202
:100B10001BE01898012802D00020302104E00020BA
:100B2000F24305E02154401CB042FBDB304600227A
:100B3000189B002121540F998B600A60486013B004
:100B4000F0BDBD1B6D1CDFE70A9A002900DA69427F
:100B50000BA800F063FA0BAB07CB03AB07C30899F4
:100B6000099800F0C7FA6B4607C30146D448091834
:100B7000002D00910BDDD24903980A9A4942401892
:100B8000002303A90390684600F024FD08E00399C0
:100B90000A9A0023081803A90390684600F0C4FCD1
:100BA0006B4607C30004000C03D00020C04341087B
:100BB00000E01046189A002A03D000220092154641
:100BC0001EE0751E05D400F0A7F9303262556D1E87
:100BD000F9D501220843079602D000227F1C04E0C9
:100BE0002078302801D100227F1E002A069787D066
:100BF0001EE0112D07DA00F08FF9303262556D1CBE
:100C000002460A43F5D1084303D00098002819D0C2
:100C10000EE00021681E05E0235C625C63542254F0
:100C2000401E491C8142F7DBA81B401E0795069019
:100C3000079A18990020A0540F98079B069A816084
:100C40000CC07CE711260020189059E7D21DF0B5A2
:100C50000D460446D10893B0C90003C90C900D910C
:100C600004F034F902460D98C00F01D02D2007E0A2
:100C70002068810701D52B2002E04007C00F40010A
:100C8000032A0F9001D0072A05DB03462946204698
:100C900000F080F90EE12078800601D5E76900E0D8
:100CA00006272846652D04D0662814D0672D69D103
:100CB0002DE00020112F009001DB112300E07B1CB0
:100CC0000CAA03A910A8FFF7F3FE119900261098AB
:100CD0007D1C0E9142E001203B460CAAC0070B9000
:100CE0000120009003A910A8FFF7E2FE119D1298C1
:100CF0001099002600280E9501D1781C0D18781B3C
:100D000002D446427D1C761EE81B00903AE0012F7B
:100D100000DA01270020112F009001DD112300E0EF
:100D20003B460CAA03A910A8FFF7C2FE11993D4645
:100D3000109800260E91217809070BD40E99A9422C
:100D400000DA0D4603A9012D04DD4A19203AD27FAD
:100D5000302A06D0B84201DA011D04DA01210091DF
:100D60000FE06D1EEFE7002802DC86192D1A03E064
:100D7000411CA94200DD0D46801B401C0090012053
:100D8000C0070B902078000705D40098A84202DB2A
:100D90000020C043009069460020C8720B980121D2
:100DA00002AF0337C907884225D0022010902B20BC
:100DB00011900B9800280BDA40420B902D201190D7
:100DC00006E00B9800F056FC30317F1E0B90397016
:100DD0001099481E00291090F3DC0B980028F0D1E0
:100DE00011987F1E38702088000501D5452000E04D
:100DF00065207F1E387001A8C01BC01D0B900F9886
:100E0000002800D0012041190098C01709180B983C
:100E10000818A169081A401EA0612078C00602D4F3
:100E20002046FFF7B1FA0F98002805D06268A16844
:100E30009047206A401C20622078C00625D52046B5
:100E4000FFF7A2FA21E0002E07DB0E98B04204DD86
:100E500003A86268805DA16802E06268A168302032
:100E60009047206A761C401C20620098401E002893
:100E700000900AD100F04CF8C06862680168405CDC
:100E8000A1689047206A401C206228466D1E0028F9
:100E9000D9DC07E062683878A1687F1C9047206A37
:100EA000401C20620B99481E00290B90F2DC204662
:100EB000FFF780FA032042E601FCFFFF104D00001F
:100EC000E1DFFFFF01694A1C02610878704700B545
:100ED0008FB0029100210591054901937944039156
:100EE000114604906846FFF7A3FA0FB000BD00005A
:100EF000E5FFFFFF0A681070521C0A6070470CC9BA
:100F000008399A4202D2531C0B60107070470000DF
:100F100000487047300000200B4670B50246890734
:100F20008008084319469D08141AA9412509080795
:100F3000054308092C194841250A01060D43010AF9
:100F40002C194141200C0D0428430D0C00194D4172
:100F5000002140194D41C00869070843E908840F82
:100F60008D002543840024184D4124196D41121B26
:100F7000AB4107E00925ED432C11521963410024D0
:100F8000401C61411C460A250026551BB441F1D284
:100F900070BD0000F8B51F46044601230068DB025F
:100FA000032601461840072A05DB002801D017A5B3
:100FB00006E017A504E0002801D016A500E016A55C
:100FC000102081432160A069C01E002FA06101D0C4
:100FD000401EA0612046FFF7D7F9002F09D0384600
:100FE0006268A1689047206A401C2062C01C206291
:100FF00006E0206AFAE762682878A1686D1C9047CD
:10100000761EF8D22046FFF7D5F9F8BD4E414E00C6
:101010006E616E00494E4600696E6600F7B5164671
:101020008AB0334878446C4603467C33C06F5A68B4
:101030009B680DC42E487844763003AC0DC80DC4AF
:101040003720C001081837211B30FFF7DDFA0546AD
:101050000C46803D1B3C02D56442012000E000208C
:101060000027099010E0E0070CD00C2020497843BD
:10107000794432464C3941186846012300F054FA4D
:101080006B4607C364107F1C002CECD1184F7F44C3
:101090002E3F16E0E80712D02001C0190EC80691B5
:1010A000089307920068F04201D1981908903246DF
:1010B000012306A903A800F037FA03AB07C36D109C
:1010C000641C002DE6D10998002806D032466946F6
:1010D000012303A800F07EFA05E0012332466946A9
:1010E00003A800F021FA0A9B07C30DB0F0BD000071
:1010F000F4400000034640000A4610B5400D0BD0F6
:101100000121C9070F24A40200191C03640821430C
:10111000540D2143D20207E000210120F2E7D40F51
:10112000490021435200401E0029F8DADB0FDB079B
:10113000184310BDFFB50D46144685B04868516888
:1011400003F0ABFE00910190A868A16803F0A5FE32
:1011500002910390A868616803F09FFE029A12183A
:101160008242029201D2012000E00020019A0B1875
:10117000D2180028019202D08A4202D903E08A42A2
:1011800001D2012000E00020009908180090686852
:10119000A16803F082FE029A12188242029201D2E2
:1011A000012000E00020019A0B18D21800280192BB
:1011B00002D08A4202D903E08A4201D2012000E033
:1011C0000020009908180090286821684000490014
:1011D000400849084018FA49471814E001994000AE
:1011E000C90F08430090019802994000C90F0843B5
:1011F0000190029803994000C90F08430290039898
:1012000040007F1E039000980028E7DA0898002825
:1012100001D0EC4E00E00026B74201DA012000E0E8
:101220000020002804902AD0F71BF806C00E15D025
:10123000029B2021091A039A8B401A430392029AB7
:10124000019BC2408B401A430292019A009BC2400C
:101250008B4000991A430192C14000917B110DD03F
:101260006F460320C11A03D500218200B95003E064
:101270008A008100BA587A50401EF3D53746039849
:101280000299002800D0012001430898029100280B
:1012900008460CD0002800D001200199019A490588
:1012A00008430121D20AC902D202019200E00121C1
:1012B0000E9B0122D207012B02D0002B03D013E09A
:1012C000002807D120E0904204D890420CD1019B25
:1012D0000B4209D0019B5918019105D10099491C75
:1012E000009101D17F1C009200280DD010210846EA
:1012F0000020C0460498002806D00F98002803D08C
:10130000082108460020C04628682168019B009AF1
:101310004840C10F0598C90739430EC009B0F0BD58
:10132000FFB587B0099A0898089953689268406891
:10133000896896460022039317469446089A1268D5
:101340005300099A5B081268520052089A1A9E4B81
:10135000D4180A9A002A01D0352200E040220692D1
:101360000022012315460492DB07059324E0002D9B
:1013700005D175460346039E4D1BB34109D37546FF
:101380006646039B491B049D9841059B7519AC4615
:101390005F4163463B4308D0059B049EDD0776080A
:1013A0002E435B080496059301E0521E641EC50F90
:1013B000ED0749184041521C069B9A42D7DB002D8D
:1013C00004D17546039A6B1A824101D203200CE0C6
:1013D000039A0B466B404240134303D0014303D0B2
:1013E000012002E0022000E000206146019100217E
:1013F000009702910A99002905D0614640020143F5
:10140000704B019102E08007002302909C4201DAB8
:10141000012000E0002007003AD01A1BD006C00EC1
:1014200015D0029D2021019C091AC5408C402543FE
:10143000029C8C4000D001242543019C0295009D14
:10144000C4408D4000992C430194C1400091541137
:101450001DD06D460221002202290CD10320001B61
:1014600007E0002804DB8600AE59002E00D00122E0
:10147000401C0328F5DB081B02D588002A5004E035
:101480008000285810438A00A850491EE3D51C4606
:101490000A98002802980CD0002800D00120019959
:1014A000019A490508430121D20AC902D2020192D8
:1014B00000E00121109B0122D207012B02D0002B5A
:1014C00003D013E0002807D11FE0904204D89042D7
:1014D0000CD1019B0B4209D0019B5918019105D1F8
:1014E0000099491C009101D1641C009200280CD085
:1014F000102108460020C046002F06D01198002871
:1015000003D0082108460020C04608980999019A8E
:10151000009B006809684840C10F0798C90721432C
:1015200082600AC00BB0F0BD00B585B00193009297
:101530000A460146002302A8FFF7FCFD02A807C8DF
:1015400005B000BDFFB50A461F4685B00799019357
:1015500001230091014602A8FFF7ECFD02990398D0
:10156000049ECA0F4900D20700920F224908920236
:101570008C1A0021002800DB0C46450013486D083A
:10158000844214D3079A002A04DA441E0026104D20
:10159000F64302E004460D460E46102108460020A0
:1015A000C046002F03D0042108460020C046200575
:1015B000E90A0843009908436905F20A1143ADE6B8
:1015C00002C0FFFF013C0000FF3F0000FF070000DA
:1015D000FFFFFF7F00B585B0019300920A460146E8
:1015E000002302A8FFF79CFE02A807C8A8E7FFB5E2
:1015F0000A461F4685B007990193012300910146D1
:1016000002A8FFF78DFE02990398049ECA0F4900B5
:10161000D20700920F22490892028C1A002100285A
:1016200000DB0C46450011486D08844214D3079A2C
:10163000002A04DA441E00260D4DF64302E004465B
:101640000D460E46102108460020C046002F03D04C
:10165000042108460020C0462005E90A08430099F5
:1016600008436905F20A114358E60000FF0700002D
:10167000FFFFFF7F01468008081A02091018020ABE
:101680001018020C1018C008820012185200891A93
:1016900001E0401C0A390A29FBD270470048704714
:1016A000100000207546FFF7F9FFAE4605006946B9
:1016B0005346C008C000854618B020B5FEF77EFD31
:1016C00060BCB64600260027C0C5C0C5C0C5C0C5A1
:1016D000C0C5C0C5C0C5C0C5403D490849008D460C
:1016E000704710B50446C046C0462046FEF756FD7A
:1016F00010BD000082078B079A423FD170B5920F50
:101700000AD0032402780B78401C491C002A33D0ED
:101710009A4231D12042F5D1214EF40104C808C9C2
:10172000951B9543254018D19A420FD104C808C98A
:10173000951B9543254010D19A4207D104C808C98A
:10174000951B9543254008D19A42E7D012BA1BBA9F
:1017500001209A4200D2404270BD12BA1BBA2DBA83
:1017600018241000E0401900E140401A05D12E0075
:10177000E64002D1083CF4D1D01A70BD02780B7853
:10178000401C491C002A09D09A4207D102780B78E4
:10179000401C491C002A01D09A42EFD0D01A704751
:1017A0000101010101491820ABBEFEE7260002003D
:1017B00070470000F0B589B06426029601240194B8
:1017C00008AD00958048EC21D022234600F086FB2E
:1017D0002878602802D0582800D0F0E00296022035
:1017E0000590019008AD00957748EC27882239468E
:1017F000234600F073FB28786978090208187349BA
:10180000888002960696059E019608AD00958A226C
:101810006D4807973946234600F060FB28786978C1
:10182000090208186949C88006980290019608AD17
:1018300000958C2264483946234600F04FFB2878F7
:1018400069780902081861490881069F0297019684
:1018500008AD00958E225C480799234600F03EFBB8
:101860002878697809020818584948810297019632
:1018700008AD009590225448079E3146234600F05B
:101880002DFB287869780902081850498881029749
:101890000494059C019408AD009592224A48314673
:1018A000049B00F01BFB2878697809020818474957
:1018B000C88102970194049C08AD00959422424887
:1018C0003146234600F00AFB287869780902081897
:1018D0003E4908820297059E019608AD0095962222
:1018E00039480799234600F0F9FA287869780902FF
:1018F00008183649488202970196374608AD009588
:1019000098223148079E3146234600F0E7FA2878AE
:101910006978090208182D49888206980290019773
:1019200008AD00959A2228483146234600F0D6FAA1
:1019300028786978090208182449C882069E029608
:10194000019708AD00959C221F48079F3946234602
:1019500000F0C4FA28786978090208181B4908833E
:1019600002960598019008AD00959E2216483E46C5
:101970003946234600F0B2FA287869780902081837
:101980001249488308A85721017000900194069FCE
:101990000297F4220C4D28463146234600F0BAFB4C
:1019A00008A81021017000A991C1F52228463146EE
:1019B000234600F0AFFB0548847009B0F0BD002459
:1019C0000248847009B0F0BDC800002070000020FB
:1019D000B0B5044600F0DCF80546601C02D00448AF
:1019E0000078241800F0D4F8401BA042FAD3B0BD10
:1019F00000000020F0B58AB007900B68002B00D1E2
:101A0000B3E00E465A480799814201D0062000E013
:101A100005200B210907079A52180A21CA41019291
:101A2000052A00D301900798203000900022154627
:101A30001746029619460BE021434E4801607F1C71
:101A400031680846F840121DAD1C002800D18CE01A
:101A500001231846B8400140F1D005930692039146
:101A6000324603263146A9400495CD4351680C46C1
:101A70003440631E012B0895099110D807998B6893
:101A80002B40D668049DAE401E438E60099AD30653
:101A9000DB0FBB404E6886431E434E6006E0032CBE
:101AA000049D03D13446029E069A1DE00799C8683A
:101AB000089A1040029EB368AB400343CB60022CEF
:101AC000069A11D11C2010400F218140FB089B0079
:101AD000009AD4588C43316981402143D150069AF1
:101AE0007068032409900440AC4007990868089B7B
:101AF00018402043086009988003800F059B9ED002
:101B00001D490868184308600C2010400F218140CF
:101B100003233C469C43194BE3588B430199814076
:101B2000194316482150134881687068C30202D5D2
:101B3000039C214301E0039CA1430E4B9960D968AB
:101B4000830201D5214300E0A1430A4BD9605968C3
:101B5000830301D5214300E0A143064B5960196876
:101B6000C00300D568E7A14367E70AB0F0BDC046EF
:101B7000001C0050000401403410024008000140E5
:101B8000002A02D0182281507047282281507047C5
:101B9000014800687047C046E4010020B0B5024625
:101BA000034640335C780220202C17D11C78012C8E
:101BB00014D024205870106802680124A2430260E7
:101BC000220305689543056002680A4302600168C4
:101BD000214301600020187020215970B0BDB0B5BC
:101BE0000246034640335C780220202C17D11C7833
:101BF000012C14D024205870106802680124A243DC
:101C000002600F2212020568954309022943016010
:101C10000168214301600020187020215970B0BD77
:101C2000F0B581B0002822D00546403569780029FA
:101C300005D100212970044600F086FB20462421AE
:101C4000697001680B68012293430B600F231B0628
:101C500044689C430C618C681C4B1C408C608468FD
:101C6000C668012E06D1D60334438C600CE00120F7
:101C700001B0F0BD2127BF023C438C60022E03D18E
:101C8000D4024E68264302E0D4024E68A6434E605A
:101C90004C680F4E26434E60CC681C40CC600369F4
:101CA00044691C4383691B022343CB60C369046AF4
:101CB0001C430C600B6813430B600021416420221D
:101CC0006A7001630846A97001B0F0BDFF7FFFFF95
:101CD00000800002F0B589B00792064600270897F9
:101CE0000546403568780224202800D0EFE03068AF
:101CF0008269120400D5EAE02A78012A00D1E6E0E0
:101D000024226A7001242C707764FE4A1140714AC3
:101D10008A180592704A89180491591C02950194F9
:101D200006934DD0002B039700D08CE0039FF16801
:101D30000129059900D004994160FFF729FF054664
:101D40003068816920220A4081691024214051189D
:101D500000D1B1E08069C00600D496E0009520254E
:101D6000002230462946134601F056FD002800D0D7
:101D70009EE03068C461C5610899491C08910899C2
:101D8000079A9142D3D32020029A5070716C01437C
:101D9000716401249AE00095FB43202530462946D2
:101DA0003A4601F039FD002800D081E03068C46176
:101DB000C5610899491C08910899079A9142E2D295
:101DC000F1680129059900D004994160FFF7E0FE10
:101DD00005463068826920210A4083691024234027
:101DE000D21817D182690A4083692340D21811D1D1
:101DF00082690A4083692340D2180BD182690A4064
:101E000083692340D21805D182690A40836923403F
:101E1000D218E7D08069C006BDD437E000952025F0
:101E2000002230462946069B01F0F6FC0028039F5D
:101E30003ED13068C461C5610899491C0891089970
:101E4000079A91429FD2F1680129059900D004991F
:101E50004160FFF79DFE05463068816920273940C3
:101E600082691024224089180CD1FFF791FE401B93
:101E70000699884222D830688169394082692240B7
:101E80008918F2D08069C006C8D4039F019C0095D0
:101E900020250022304629460792069B01F0BCFC13
:101EA0000028029A13D13068C5615570079C0DE077
:101EB000019C204609B0F0BDFFF76AFE2020029A7F
:101EC0005070716C014371640124039F17702046A8
:101ED00009B0F0BD0020000200280002F0B589B072
:101EE00004460646403675780220202D09D10E9F03
:101EF000002F08D00F9D002D05D007953578012DB6
:101F000006D109B0F0BD01204102616409B0F0BD05
:101F10000397059302920691012008903070FFF715
:101F200037FE02462068816909042FD41099049174
:101F3000222171704021B170002767640799618583
:101F4000039961626763FA49069B0B400599C9B220
:101F500009040693C9184368F64D2B40C91801239C
:101F600008935B03C918416020460499154601F0A7
:101F700013FD002846D1039707952068059901298C
:101F800026D10299C9B28162079D31E00898C50344
:101F900002E081692942C9D019212046174601F083
:101FA0007DFB002811D1FFF7F3FDC11B20681A2922
:101FB0003A46EED381692942EBD0606C2021084378
:101FC0006064717000203070B070089809B0F0BD86
:101FD0000299090A816220460499079D2A4601F068
:101FE000DBFC0028039F0DD121680298C0B28862F3
:101FF0000095402100222046049B01F00DFC0028A2
:10200000039F03D03770089809B0F0BD608D000AB7
:1020100007D020684168C74A1140021D01203B4B90
:1020200009E0608D22685368C2490B40C1B20904BF
:102030001943121D344B069F194339431160208503
:1020400001200890400638180590079A049D0FE07B
:10205000608D208521684A68B94B1A40C0B20004DF
:10206000059B184310434860079A608D002834D0C0
:1020700000920421002720463A462B4601F0CCFB73
:102080000028A2D1606A2168496A0170608D401EF3
:102090006085606A401C6062208D401E2085618DD5
:1020A0000029079AE1D00004DFD1009280210022AC
:1020B00020462B4601F0B0FB002886D1608D000A37
:1020C000C6D00120208521684A689D4802400698B4
:1020D00002430F4802434A60C6E72046294601F002
:1020E00018FC0028089800D00BE720682021C16167
:1020F0004268944B1340436071703770B770384634
:1021000009B0F0BDFF03000000240002002401011B
:1021100000000101F0B589B00446074640377D78DC
:102120000220202D09D10E9E002E08D00F9D002DDB
:1021300005D007953D78012D06D109B0F0BD0120ED
:102140004102616409B0F0BD0396049302920691C6
:10215000012005903870FFF71BFD06462068816955
:1021600009042DD40896109D212179704021B97061
:1021700000266664079961850399616266636C490C
:10218000069A0A400499C9B209040692891842685D
:10219000684B1340C918684A891841602046079562
:1021A0002946089A01F0F8FB002845D103962068DB
:1021B0000499012925D10299C9B28162089D30E0B4
:1021C0000598C50302E081692942CBD01921204638
:1021D000324601F063FA002810D1FFF7D9FC811BC9
:1021E00020681A29EFD381692942ECD0606C202144
:1021F00008436064797000203870B870059809B0A1
:10220000F0BD0299090A816220460799089D2A4675
:1022100001F0C2FB0028039E0ED121680298C0B2D3
:10222000886200958021002520462A46079B01F000
:10223000F3FA0028039E03D03E70059809B0F0BD64
:10224000039501204606618D090A3C4A3C490590E8
:1022500006D020680B4641681940051DFF2008E0A4
:10226000608D226853680B40C1B209041943151DE3
:102270003246069B11431943296020851E4304966C
:10228000089A079E0FE0608D208521684A682C4BD4
:102290001A40C0B20004049B184310434860608D8C
:1022A0000028089A2FD02046314601F075FB0028FF
:1022B000A4D12068616A0A788262608D401E6085C0
:1022C000481C6062208D401E2085618D0029E6D06B
:1022D0000004E4D108980090802100222046334673
:1022E00001F09AFA002889D1608D000ACBD0FF2036
:1022F000208521684A6812480240069802430F4828
:1023000002434A60CBE72046314601F002FB002839
:10231000059800D011E720682021C1614268094B6F
:1023200013404360797003983870B87009B0F0BDFD
:10233000FF030000009800FC002000010000FF01E6
:10234000009C00FC00E800FEB0B586B000210591BD
:10235000049103910291019100681149884201D0D2
:1023600006B0B0BD0F4C20680221084320602068F1
:102370000840009004200590122002900320049051
:1023800000020190009801250395074801A9FFF775
:1023900031FB6805E1680143E16006B0B0BDC046AD
:1023A000005400402C100240000400501D480078EA
:1023B00002490A68101808607047C046E40100200E
:1023C00080B50848016840220A430260032000F0FB
:1023D0000BF8002801D0012080BD00F027F8002074
:1023E00080BDC0460020024070B504467D20C0007C
:1023F0000C4E317802F056FC01460B48006802F0A2
:1024000051FC00F077FD0125032C08D8002806D1E7
:102410000025E84321462A4600F014F87460284657
:1024200070BDC0460000002008000020044801687C
:10243000012211430160110742680A43426070475C
:1024400034100240002805D40322034693430A4A6D
:102450009A1803E00C220240064BD2188007C00EE7
:102460008901C9B28140FF23834010689843084323
:102470001060704714ED00E000E400E0F0B589B0B2
:10248000066801252F02EA0211462031874B0E42D1
:102490007CD0059208902907143B186808400490E6
:1024A00002D118680843186001930291804C20689B
:1024B000384211D1206838432060FFF769FB064697
:1024C0002068384208D1FFF763FB801B6428F7D9E6
:1024D0000325284609B0F0BD0326340573484C385F
:1024E000069001682140089B5868024603942240E8
:1024F0000096340491420AD102462240A242069E2E
:102500000DD19A68039B1A40914205D107E001461C
:102510002140A142069E02D131688903D9D4634B80
:1025200059680794214021D0079A1040814203D076
:102530000898007880060AD408988068079A1040A6
:10254000814213D008980068059908420ED0586857
:10255000E9045A680A435A605A688A435A60014635
:10256000079A91435960384200D08CE00898066879
:1025700005990E42079C59D1B1066DD404990029E2
:1025800004D1019C2168029A91432160F1070DD189
:10259000B10713D4710719D4310720D43E4227D193
:1025A00071062ED40025310693D535E01968032233
:1025B0009143C2680A431A60B107EBD519680C222F
:1025C000914302690A431A607107E5D50321890224
:1025D0001A688A434169114319603107DED5032126
:1025E00009031A688A438169114319603E42D7D0B2
:1025F000032109041A688A43C169114319607106ED
:10260000D0D5012189061A688A43416A11431960AD
:102610000025310600D45CE703218A041968914340
:10262000006A08431860284609B0F0BD8268114668
:102630002140A1420BD10398024003231B05069DB4
:102640002C689C43194B089814432C60079C5A68CB
:102650000A435A60B10691D5426811462140A14211
:102660000AD10398024003231B05069D2C689C4356
:102670000E4B089814432C605A680A435A60049918
:10268000002983D17DE7FFF783FA0546884C074B85
:102690005868800500D569E7FFF77AFA401BA04229
:1026A000F5D9009D284609B0F0BDC0464C10024047
:1026B00000700040F0B583B0002846D00E4602906E
:1026C0007A480068012101910840864216D977496D
:1026D00008680125A84330430860754CFFF758FA95
:1026E0000746724800682840B04207D0FFF750FA0A
:1026F000C01BA042F5D9032003B0F0BD029D28689D
:102700008107794C05D52168F0229143AA680A43D4
:102710002260C0071CD16548006801273840864206
:1027200024D262490868B8430860614CFFF730FA68
:1027300005465E480068C00718D0FFF729FA401B1D
:10274000A042F6D9032003B0F0BD012003B0F0BDD4
:102750006A6821460C390968012A34D0032A2DD031
:10276000022A72D1890301982BD52FE0029B1868A9
:1027700041075D4C06D50721090222688A43D968C2
:1027800011432160000707D50720C002216881435B
:102790001869C0000843206021680807820F6E484E
:1027A0007A441279520097440154735B38042146ED
:1027B000083909680904490F884069E089010198CE
:1027C00004D403B0F0BD49070198FAD5216803206D
:1027D0000190814311432160FFF7DAF907466868E9
:1027E000334D03282BD002281ED001280AD120689F
:1027F0000C21014004298ED0FFF7CAF9C01BA84262
:10280000F5D909E020680007800F00D183E7FFF7C2
:10281000BFF9C01BA842F5D9019803B0F0BDFFF77E
:10282000B7F9C01BA842F7D820680C21014008293D
:10283000F5D170E7FFF7ACF9C01BA842ECD82068CF
:102840000C2101400C29F5D165E789050198B8D51F
:10285000BCE720460C380068C00612D5414817E096
:102860008A02120F3D4B9A5C0902890F491C2368AA
:10287000DB0309D420460C380068C00603D539486C
:1028800002E0374804E036484243104602F00AFAB4
:1028900021680906090F074A515CC84011490860C0
:1028A00005480068FFF7A0FD03B0F0BD002002401E
:1028B00088130000B0510008040000200948006897
:1028C000094909684905490F084A515CC8407047E1
:1028D00004480068044909688904490F034A515CA7
:1028E000C8407047080000200C100240C05100088A
:1028F00010B5844BD9680807820F17487A441279BB
:10290000520097440108070D01200004596809048A
:10291000490F884010BD1868C00614D5114810BD75
:102920008A02120F0D4CA25C0902890F491CDC6857
:10293000E40303D41868C00607D50A48424310468A
:1029400002F0B0F910BD064810BD054842431046DC
:1029500002F0A8F910BDC04600127A00C851000864
:102960000024F40000093D00F0B589B0002855D0DE
:10297000644EF1680C220A40069201210591090477
:10298000F76804910F4007900078C00710D00698B0
:10299000082806D006980C2800D0D5E0002F00D1DA
:1029A000D2E03068800303D507984068002850D0F3
:1029B000079B1878800734D41878C0064CD4079841
:1029C0000078000766D407990878400700D59BE097
:1029D0000878800600D51EE10798846A002C1AD07A
:1029E00006980C2800D067E1012C32D0F068049AD8
:1029F0000240079BD96A8A422BD10F2189040140EA
:102A00001A6B914225D1032189050840596B8842F0
:102A1000059800D057E2002009B0F0BD012009B0B0
:102A2000F0BDD868810604D5316820221143316099
:102A300090430699042906D006990C2900D0A9E0F4
:102A4000002F00D0A6E0316800283AD104221140BE
:102A500037D0059809B0F0BD01204402069900293D
:102A600000D1ADE03168079AD2690002002A00D196
:102A700001E101433160FFF78BF8054630682042E1
:102A800000D008E1FFF784F8401B0228F6D90320A4
:102A900009B0F0BD306D07994969002900D1D9E02E
:102AA000012108433065FFF773F80546306D800754
:102AB00089D4FFF76DF8401B0228F7D9032009B02D
:102AC000F0BD1F21090272688A4319690902114386
:102AD000716031680922914301433160F168080750
:102AE000820FFA485200C0467A44928852009744B6
:102AF00003002401DA013B0170680004410F0498CF
:102B00008840D0E10010024001221107B06B08405C
:102B1000029002D1B06B0843B0630191039214029A
:102B2000F14F3868C00523D4386820433860FFF778
:102B30002FF80546386820421AD1FFF729F8411BC3
:102B400003206429F6D9BEE1306807994968049AE0
:102B5000914209D005221204914200D0CDE005999E
:102B60008904084330603068049908433060D3E03A
:102B700007988168306D039B5F02002900D12BE12B
:102B800005221202914200D120E1A14200D037E19A
:102B900020433AE13168002800D1D3E00922914373
:102BA00001433160FEF7F4FF05463068400700D569
:102BB00002E1FEF7EDFF411B03200229F5D982E176
:102BC0003168214204D00799C969002900D17AE10E
:102BD0000720400371688143079B586A0143716075
:102BE000FF21090672688A43196A0906891871600B
:102BF000400B04998140F0680006000FB74A105C52
:102C0000C140B7480160B7480068FFF7EDFB0028F6
:102C100000D058E1D3E6B06807998969002900D14E
:102C2000B4E001210843B060706B0843706348034F
:102C3000AF490A6802430A60FEF7AAFF0546B0687A
:102C4000800700D5C8E6FEF7A3FF411B0320022939
:102C5000F5D938E1012188433065FEF799FF054633
:102C6000306D800700D4AEE6FEF792FF411B0320D3
:102C70000229F5D927E181433160FEF789FF054636
:102C80003068204200D19AE6FEF782FF411B032004
:102C90000229F5D917E10720400371688143079A9B
:102CA000506A08437060FF20000671688143106A13
:102CB00000064018706082E60120010632688A43EF
:102CC00032604706FEF764FF0546022C0AD13068E1
:102CD000384200D1C4E0FEF75BFF411B032002290C
:102CE000F5D9F0E03068384200D194E6FEF750FFA5
:102CF000411B03200229F5D9E5E0049A9043306096
:102D00003068104008900898059880043268824323
:102D10003260002900D193E005984404FEF738FFA3
:102D200005463068204200D042E6FEF731FF401BE6
:102D30006428F6D9032009B0F0BD3068C0067DD5FF
:102D40006548B0E0012081433160FEF721FF054670
:102D500030684007079B00D42EE6FEF719FF411BA1
:102D600003200229F4D9AEE08A02120F584B9A5C74
:102D70000902890F491CF368049C234200D08EE0AD
:102D80003068C00600D489E0534888E001218843B8
:102D9000B060480356490A6882430A60FEF7F8FEAD
:102DA0000546B068800700D416E6FEF7F1FE411B29
:102DB00003200229F5D986E01F20000271688143B3
:102DC000079B1869000208437060F5E59902084303
:102DD0003065306D204318E0A04330659802316DB6
:102DE00081433165FEF7D4FE0546404C306D3842D4
:102DF0001AD0FEF7CDFE411B0320A142F6D962E0B6
:102E0000A04330659902306D88433065FEF7C0FEFF
:102E10000546364C306D384206D1FEF7B9FE411BEF
:102E20000320A142F6D94EE002980028079900D06D
:102E3000CEE5B06B019A9043B063C9E5254832E016
:102E400005984404FEF7A4FE05463068204200D1F0
:102E5000AEE5FEF79DFE411B03206429F5D932E063
:102E6000FD200004F1688143079B2C330DCB084300
:102E700010431843F0602948401C31680143316019
:102E8000FEF786FE04463068384200D0C3E5FEF700
:102E90007FFE011B03200229F5D914E00D484243AF
:102EA000104601F0FFFEF1680906090F0B4A515C5C
:102EB000C8400B4908600B480068FFF795FA0028E6
:102EC000079B00D178E509B0F0BDC04600127A003A
:102ED000C85100080024F40000093D00B05100086A
:102EE000080000200400002000700040881300004B
:102EF00020000140401E010E01D00120704707490B
:102F0000074A5060074803680B4003218907591896
:102F1000016000209060072111607047FFFFFF00F3
:102F200010E000E020ED00E010B53822825C012ABC
:102F300001D1022010BD02463832022353700068CE
:102F400043687024A3430C681C4383684460414C6D
:102F5000A04207DC0124A407A04209D0B14CA04242
:102F600006D00AE03C4CA04202D03C4CA04204D126
:102F70008024A34349681943816000201070012117
:102F8000517010BD3822825C012A01D102207047A5
:102F90000346383300221A700068016510467047F6
:102FA000B0B5002819D0054638356978002905D113
:102FB00000212970044600F053F820460221697070
:102FC00001680C68234B994209DC01229207914267
:102FD0000BD0944A914208D015E00120B0BD1E4AA2
:102FE000914202D01D4A91420DD1702294438268D1
:102FF000224399420ADC01239B0799420CD0894B5A
:10300000994209D024E022469942F4DD124B9942BC
:1030100002D0124B99421BD103231B029A4303692E
:103020001343C268CA6242688A620A68042414436D
:103030000C6001224A618024A34340691843086060
:10304000AA71AA70EA702A716A716A700020B0BD14
:103050001346E6E7FF070140001401400008014065
:103060000068F549884200D0704703480168022291
:103070000A4302607047C04638100240F0B538225B
:10308000825C012A01D10220F0BD024638320223BF
:103090005370504E3346773B0468A0681840A060D8
:1030A0000D6800234F2D1FDC1F2D36DD202D38D05D
:1030B000302D36D0402D00D087E0206A256A0126C9
:1030C000B5432562A569F026B543CE6836012E4387
:1030D000A6610A25A843496801432162A0684721E7
:1030E0000143302081436AE06F2D26DD0120470334
:1030F000BD4257D00003854218461AD0702D64D1C6
:10310000A06830404D688E68C9682E43090231437B
:103110000143A160A068772150E0002D01D0102D5F
:1031200053D1A06870218843054307202843A0603D
:103130001846137001215170F0BD502D1BD0602D29
:1031400043D1256A1020C043266A064026620F2616
:103150003603A769B743CE6836033E43A661A0266F
:10316000B5434968090129432162A16867250D43D8
:103170000540A56024E0206A256A0126B543256242
:10318000A569F026B543CE6836012E43A6610A250F
:10319000A843496801432162A068572101432020C8
:1031A00081430CE0A56835404E688F68C968374395
:1031B000090239432943A1608003A1680143A1604A
:1031C0001846137001215170F0BD012013700121C8
:1031D0005170F0BDFF00FFFF80B586B00021059162
:1031E00004910391029101910068934A904201D0A9
:1031F00006B080BDC448026801231A43026000681B
:103200001840009002200590049103910290402004
:10321000019005200007009901A9FEF7EBFB06B01D
:1032200080BDC0460004004070B53823C35C012B4C
:1032300001D1022070BD034638330224E241032A43
:1032400000D994E07A4412795200974401651F40F6
:103250000068026A056A0126B54305624568866909
:1032600045607325AE430D68354385614D68456300
:10327000A2438C6814430462826908241443846165
:1032800082690424A2438261C96868E00068026A16
:1032900001242502066AAE4306624568C669456098
:1032A0007325AE430D683543C5614D68C56364023F
:1032B000A2438C68240214430462C26908241443A4
:1032C000C461C2690424A243C261C96822E00068E3
:1032D000046A01221503066AAE4306624568C669A0
:1032E000456073252D02AE430D682D023543C5613F
:1032F0004D6805645503AC438D682D032543056275
:10330000D402C5692543C5619202C4699443C4616E
:10331000C96809021C3023E00068026A046A1025AB
:10332000AC43046244688569446073242402A54365
:103330000C6824022C4384614C6884632024A243DB
:103340008C682401144304620122D4028569254358
:1033500085619202846994438461C96809021830C6
:1033600002680A43026000200021197070BD01202C
:103370000021197070BD0000B0B5002819D00546B5
:1033800038356978002905D100212970044600F0FC
:1033900055F820460221697001680C68234B994258
:1033A00009DC0122920791420BD0234A914208D0B6
:1033B00015E00120B0BD1E4A914202D01D4A914243
:1033C0000DD1702294438268224399420ADC012382
:1033D0009B0799420CD0184B994209D024E0224611
:1033E0009942F4DD124B994202D0124B99421BD103
:1033F00003231B029A4303691343C268CA624268EB
:103400008A620A68042414430C6001224A61802401
:10341000A343406918430860AA71AA70EA702A7130
:103420006A716A700020B0BD1346E6E7FF070140ED
:103430000014014000080140000400407047B0B58E
:1034400000281DD00446C06F002805D17820002137
:103450002154204600F02AF82420E0672068016803
:103460000125A9430160606A002802D0204600F0CF
:10347000FAFC204600F0C8FD002803D02846B0BD65
:103480000120B0BD0920C00221684A6882434A6019
:1034900088682A22904388600868012202430A60F3
:1034A000204600F049FD05462846B0BD10B586B05F
:1034B0000021059104910391029101910068114A44
:1034C000904201D006B010BD012042040E4BDC68D2
:1034D0001443DC601A6802431A601A6802400092C2
:1034E00004200590032004900391022002900C20F8
:1034F000019005200007009901A9FEF77BFA06B0AC
:1035000010BDC046004400402C100240F0B585B00C
:103510000446C06F202810D1012000290BD0002ABA
:1035200009D001200503A668AE4209D1CE0707D015
:103530002669002E04D105B0F0BD022005B0F0BD13
:103540000193029127465037204684300021039191
:1035500001602120E0671646FEF71AFB04907E808A
:103560003E80A068A84202D1206900285ED0029D5A
:10357000019E039A2168788800285ED0701C454B14
:103580002ED0002E49D00392C869000608D4FEF759
:10359000FFFA0499401AB04266D821680868F3E738
:1035A000002D03D0287888626D1C07E0039A1088EC
:1035B000384B18408862921C039200257888401E80
:1035C000788078880028DFD137E01088184088623A
:1035D000921C00257888401E7880788800282CD09E
:1035E000C869000608D4C869000605D4C869000681
:1035F00002D4C8690006F3D5002DE6D02878886289
:103600006D1CE7E7108818408862921C00257888B6
:10361000401E7880788800280FD0C869000621D520
:10362000002DEFD0287888626D1CF0E70025029A03
:10363000019E216878880028A0D1CA69002052061E
:1036400013D4002E0ED0721C13D1CA6952060CD4AA
:10365000CA69520609D4CA69520606D4CA69520612
:10366000F3D502E0FEF794FA03202021E16705B0CC
:10367000F0BD0546FEF78CFA0499401AB042F3D823
:1036800020680168C0694006F4D528462021E1671A
:1036900005B0F0BDFF010000FEE70000F0B585B009
:1036A0000E4604464030049020688169C90606D45D
:1036B00000210F4601258269D30543D446E010213D
:1036C000C1618169890635D4711C30D0154601204D
:1036D000002E6AD186030390C703FEF759FA2068CB
:1036E00042680499897883693B4209D0324007D106
:1036F000202905D0416831434160FEF749FA05466B
:1037000020688169890605D4FEF742FA401B1A2811
:10371000F6D375E081698906DFD50BE081698906FA
:1037200008D48169890605D48169890602D4816932
:103730008906F3D52021C161012704210125826971
:10374000D30503D52B02C36129432F466B025605CF
:1037500006D41A420AD1002F0BD1002005B0F0BDCB
:10376000AD02C561082529431A4202D0C361022275
:1037700011438269920701D5002282628269D207D1
:1037800003D182690123134383614268214B1340B3
:103790004360606C084360642020049948700020F6
:1037A00008708870012005B0F0BD8103029103907C
:1037B000C0030190019F02E081698906BAD4FEF737
:1037C000E7F9411B2068B142F6D94268049989782B
:1037D00083693B420BD0029B1A4008D1202906D0B6
:1037E0004168029A11434160FEF7D2F9054620680C
:1037F00081698906E0D4FEF7CBF9401B1A28F6D37D
:10380000206881692421039F01258269D30599D409
:103810009CE7C04600E800FEF0B585B00D460446C2
:10382000006880690840401A4142414100260492E4
:103830008A4223D11F460A9A581C03922BD0002F8C
:10384000029433D1002620463146FFF727FF002897
:1038500028D1FEF79DF9206881692940491B4A4219
:103860004A4104999142039A44D080692840401B00
:103870004142414104988842029CE3D0304605B061
:10388000F0BD206880692840401B414241410498B6
:103890008842039AF2D10026F1432046FFF7FEFE4C
:1038A0000028EED00126304605B0F0BD019507E0B6
:1038B00080692840401B4142414104988842DDD143
:1038C0003446029E304639461546FFF7E7FE00288B
:1038D000E8D1FEF75DF9411B3068B9422A46264619
:1038E000019DE5D981692940491B4B424B4104990F
:1038F0009942DDD1029B18464030596C2022114379
:10390000596442700021017081700126304605B073
:10391000F0BDF0B581B005460068806900248006DE
:1039200022D416460F46002903D129E0806980067B
:103930001AD4284639463246FFF7B0FE002827D170
:10394000FEF726F9811B2868B942EFD981698906FB
:10395000ECD428464030696C2022114369644270DF
:103960000021017081700124204601B0F0BDFEF7F6
:103970000FF9286881698906EBD580698006F3D440
:103980000024284621463246FFF788FE0028EED064
:103990000124204601B0F0BDF0B581B005460068B5
:1039A00080690024800716D416460F46481C19D09B
:1039B000002F26D10024284621463246FFF76EFE0E
:1039C000002838D1FEF7E4F828688169890728D5EE
:1039D00080698007EED5204601B0F0BD2868806977
:1039E0008007F8D40024E14328463246FFF756FE0C
:1039F0000028F3D00124204601B0F0BD8069800783
:103A0000E9D4284639463246FFF748FE002812D14D
:103A1000FEF7BEF8811B2868B942EFD98169890792
:103A2000ECD428464030696C20221143696442700E
:103A30000021017081700124204601B0F0BD00001A
:103A4000F0B585B001246703994E0025304639460C
:103A50002A46FEF795F805200490000721462A46DD
:103A6000FEF78EF83220FDF7B3FF3046214622469E
:103A7000FEF786F80221039130462246FEF780F8D1
:103A80000421029130462A46FEF77AF8A1020191FC
:103A900030462A46FEF774F8304639462246FEF78D
:103AA0006FF82046FDF794FF304639462A46FEF768
:103AB00067F82046FDF78CFF0498FDF789FF304634
:103AC00021462246FEF75CF8304603992246FEF76F
:103AD00057F8304602992A46FEF752F830460199C7
:103AE0002A46FEF74DF8304639462246FEF748F89A
:103AF0002046FDF76DFF304639462A46FEF740F86E
:103B00002046FDF765FF0498FDF762FF3046214629
:103B10002246FEF735F8304603992246FEF730F884
:103B2000304602992A46FEF72BF8304601992A467C
:103B3000FEF726F8304639462246FEF721F82046A1
:103B4000FDF746FF304639462A46FEF719F820466B
:103B5000FDF73EFF0498FDF73BFF304621462A461D
:103B6000FEF70EF8304603992246FEF709F8304674
:103B700002992A46FEF704F8304601992A46FDF7D5
:103B8000FFFF304639462246FDF7FAFF2046FDF793
:103B90001FFF304639462A46FDF7F2FF2046FDF763
:103BA00017FF049E3046FDF713FF2820294600F03A
:103BB0001BF82046FDF70CFF0C20294600F014F8F6
:103BC0002046FDF705FF2046294600F00DF8304657
:103BD000FDF7FEFE0620294600F006F82046FDF718
:103BE000F7FE05B0F0BDC046F0B585B00A46064602
:103BF000481E82410520000701242146FDF7C0FF31
:103C0000F006C20F2A4D28462146FDF7B9FFB0063F
:103C1000C20F022104912846FDF7B2FF7006C20FC1
:103C2000042102912846FDF7ABFFA1020391F2099E
:103C30002846FDF7A5FF6703284639462246FDF7CB
:103C40009FFF2046FDF7C4FE002201922846394618
:103C5000FDF796FF2046FDF7BBFE32462240284680
:103C60002146FDF78DFFB007C20F28460499FDF7E6
:103C700087FF7007C20F28460299FDF781FF3007C2
:103C8000C20F28460399FDF77BFF28463946224696
:103C9000FDF776FF2046FDF79BFE28463946019A40
:103CA000FDF76EFF2046FDF793FE05B0F0BDC04660
:103CB00000040050FEE7704770470000F0B589B07F
:103CC0006420049002900326019607AD00955B489E
:103CD000EC27FA22012439462346FEF7FFF8062096
:103CE0005749085E297809046A7812025118AA789F
:103CF0008A180694E105002303918A420593194628
:103D000000D01146CA084E4CA3885D00521B504398
:103D1000C0120822A25E0909C91A4943090B51437E
:103D200089130818E06204980290019608A804908C
:103D30000090F72241483946069D2B46FEF7CEF803
:103D40000C20205EC117E26A52103E4BD618F317C2
:103D50003246FCF745FACA074008801849080E2287
:103D6000A25EB7107F437A43D317121480184B41D9
:103D7000800C99034018E9034018C1176289059C1B
:103D80002346FCF72DFA4904C00B411853D0049B7D
:103D900018785A789B78000412021018C2180698F6
:103DA0000005039B9A4200D0801A1422244CA25E84
:103DB000FB0A53431222A25E724352009A189210D9
:103DC000238A1B04D2181213821A1F48504305D4A9
:103DD0001E48504300F066FF044602E000F062FF18
:103DE00044001A20164F3A5ED317E0084043400BB8
:103DF00000252946FCF7F4F90905000B46181820A0
:103E0000385EC117A2082B46FCF7EAF9C904400B3B
:103E100040181621795E4018801900110019FCF72E
:103E2000EBFD0B49FCF70CFD0A4901F083F80A4948
:103E3000FCF706FD0446204609B0F0BDC80000208E
:103E4000700000200006FFFF350C00006A1800001B
:103E50000000C84200005CC30000204180B5FEF7AE
:103E6000A5FA80BD7047B0B5416A0A070CD4CA07ED
:103E700014D18A071CD44A0724D4CA062CD48A0633
:103E800034D44A063CD44CE00122D20303685C6877
:103E90009443426B22435A60CA07EAD0012252047B
:103EA00003685C689443826A22435A608A07E2D5B9
:103EB0000122120403685C689443C26A22435A6078
:103EC0004A07DAD50122920403685C689443026BC6
:103ED00022435A60CA06D2D50122120303689C68A5
:103EE0009443826B22439A608A06CAD50122520308
:103EF00003689C689443C26B22439A604A0610D5BB
:103F000001221305026854689C43056C2C435460DD
:103F10009D4206D103235B0554689C43436C2343B5
:103F20005360090607D50121C904026853688B4311
:103F3000806C18435060B0BDF0B583B004460646AF
:103F400078360025F560FDF723FE034620680168FA
:103F5000090721D502952B4800900125690500220B
:103F600020461F4600F066F9002812D0EFF31080BB
:103F700085F3108821680A6880239A430A6080F3D9
:103F80001088032020227C21029D6250357003B0EE
:103F9000F0BD20683B46029D0068400726D51948C1
:103FA00000900127B9050022204600F043F90028BF
:103FB0001CD0EFF3108087F3108809214901226893
:103FC00013688B43136080F31088EFF3108087F33E
:103FD000108821688A68BA438A6080F310880320B9
:103FE000202280216250357003B0F0BD2020E067B0
:103FF000B060256664212A4628466250357003B0B9
:10400000F0BDC046FFFFFF01F0B581B00446016876
:104010000868764A0240A068236903436069184330
:104020001043E26910430860032630034B68834362
:10403000E06818434860A5696D4B994202D0206A38
:10404000284300E028460B252D028F68AF43074325
:104050008F606848814214DD0027674881421FD085
:10406000664881421CD06648814243D16648C06C94
:104070008007000F66A52F580125E803994213D148
:104080003DE06048814205D0994233D15E48C06C22
:10409000000A01E05C48C06C0C2505405B484759AC
:1040A0000125E80399422AD0824212D1082F00D973
:1040B00096E0C0467F443F797F00BF44043C469170
:1040C000529191917300FEF7F9FB002800D069E04E
:1040D00085E0082F00D983E07F443F797F00BF440B
:1040E000042F3A7F457F7F7F7200FEF7E7FB0028B1
:1040F00069D174E010270125E8039942D4D1082F33
:104100006ED8C0467F443F797F00BF440469096987
:104110000F6969693500FEF7D1FB00282CD15EE0FC
:1041200039480068C00626D53E4825E0FEF7E0FB8A
:10413000002821D153E0FEF7CBFB002832D14EE01E
:10414000FEF7C6FB00283ED149E02F480068C006B4
:1041500027D5344826E02C480068C00632D53148BF
:1041600031E0FEF7C5FB00281CD138E0FEF7C0FBAC
:10417000002828D133E02A4862685643B0422FD342
:10418000110388422CD8010E560800020023801922
:104190005941FCF73DF825494118254A91421CD365
:1041A0001EE01F48400061684A08101800F07AFDC0
:1041B0000246103A1C498A4212D201400007400FC1
:1041C00008430AE0164861684A08101800F06AFDC2
:1041D00001461039144A914202D22168C860002574
:1041E0000020A066E066284601B0F0BDF369FFEF4D
:1041F00000480040FF4B0040004C00400050004091
:10420000003801400044004000100240D451000832
:10421000010000000400000002000000080000008F
:104220000024F40000093D00F0FF000000FDFFFF46
:1042300000FD0F00F0B585B01F4615460E46036819
:10424000D9693140891B4A424A410021954222D115
:104250000A9C002C22D00391611C24D1D9693140E1
:10426000891B4A424A41954231D1D9693140891B63
:104270004A424A4195422AD1D9693140891B4A4272
:104280004A41954223D1D9693140891B4A424A416A
:104290009542E3D01BE0084605B0F0BDFDF778FC81
:1042A000032005B0F0BD402E049001D0802E14D123
:1042B000FDF76EFCC01BA0420CD804980068016892
:1042C000C0693040801B414241418D42F0D003988B
:1042D00005B0F0BD032005B0F0BD7830019001209D
:1042E0000090C002029006E0C8693040801B414245
:1042F00041418D42EBD1FDF74BFCC11B0320A14294
:104300003ED8049909680A685207EDD5CA691207B0
:1043100038D4CA69029B1A42E6D0029A0A62EFF3C5
:104320001082012181F3108809235B01049C246819
:1043300025689D43256082F31088EFF3108281F396
:104340001088049B1B689C688C439C60049B82F3D0
:1043500010881A6E012A0BD1EFF3108281F31088B6
:1043600019680B681024A3430B60049B82F3108828
:104370002021019CA16000221A669A662270E160E9
:1043800005B0F0BD08250D62EFF31081009880F3B1
:10439000108809225201049B1B681C6894431C600E
:1043A00081F31088EFF3108180F31088049A12686B
:1043B000936883439360049B81F31088196E0129ED
:1043C0000CD1EFF31081012282F310881A68136870
:1043D0001024A3431360049B81F310882021019AC9
:1043E00091600021196699661170D56005B0F0BD25
:1043F000AEB0FDF7E5FF20AC38212046FCF7F4F81D
:1044000000251E951D951C951B951A9510A8282111
:10441000FCF7EAF80320C102B94A13688B4301266E
:104420002796F102591811602A9580032990289542
:10443000102020902046FEF797FA002803D0EFF3D3
:10444000108072B6FEE71B950F201A901C951D95E3
:104450001E951AA82946FEF72DF9002803D0EFF380
:10446000108072B6FEE7169514950A24109410A8D1
:10447000FEF704F8002803D0EFF3108072B6FEE7D1
:104480000794249523952295219520959D480168B0
:1044900004221143016001681140109110990168D4
:1044A0003143016001683140109110990168022781
:1044B00039430160006838401090109805200407C7
:1044C000032120462A46FDF75BFB8F488F492A4689
:1044D000FDF756FB22961120000421908C48C13034
:1044E00020908C480F9620AE3146FDF783FA239733
:1044F00022950F9821900F98209020463146FDF785
:1045000079FA239522950F982190209720463146DD
:10451000FDF770FA239722950F9821907B48209001
:10452000794831460F9EFDF765FA7B487B497C4A06
:104530000260021D62C2056145618561C561056257
:10454000FDF76EFB002803D0EFF3108072B6FEE794
:104550006F4F099470480021FDF720FB002803D01D
:10456000EFF3108072B6FEE76B4800252946FDF791
:1045700036FB002803D0EFF3108072B6FEE76948DF
:104580006321694A84C0056041608560C5602395E8
:10459000229521951B951A950838FEF701FD0028F4
:1045A00003D0EFF3108072B6FEE7300320905D4831
:1045B00020A9FEF763FD002803D0EFF3108072B648
:1045C000FEE75848FEF7D8FE002803D0EFF310802E
:1045D00072B6FEE753481AA9FEF7A6FC002803D0DE
:1045E000EFF3108072B6FEE71395129511956020D7
:1045F00010904C4810A92A46FEF716FE002803D05A
:10460000EFF3108072B6FEE746480421FEF7BAFCCD
:10461000002803D0EFF3108072B6FEE74148FEF7A2
:10462000DBFD42480C23E1214902414A026041601E
:104630008560C5600561039343618561C56105625D
:104640004562FEF7FCFE002803D0EFF3108072B63F
:10465000FEE7364837A1162264252B46FEF756FFA3
:10466000FFF7EEF92C48EC21032205922B46FDF7CB
:1046700031FB002874D02D4834A112226423FEF7A8
:1046800045FF012500212846FFF7AEFA0520FDF77A
:104690009FF94E202946FFF7A7FA65202946FFF724
:1046A000A3FA70202946FFF79FFA72202946FFF7E8
:1046B0009BFA692420462946FFF796FA732029467B
:1046C000FFF792FA20462946FFF78EFA6A2029461C
:1046D000FFF78AFA75202946FFF786FA6E202946E9
:1046E000FFF782FA67202946FFF77EFA74202946F1
:1046F000FFF77AFA61202946FFF776FA17E1C046FC
:10470000007000402C1002400004005007240000FC
:104710003F1F000000080050C8000020150E1000C8
:10472000005400401C010020000400405C010020F7
:10473000004400400D0A50726973696A756E6769BA
:10474000616D612E2E2E0D0A000000004E69656B12
:104750006F206E65726120307837360D0A000000D8
:104760008A488BA116222B46FEF7D0FE02950F9E9B
:10477000019610AF00978B48EC21D0223346FDF70D
:10478000ADFB3A7820AC88A12046FBF7C9FD204656
:10479000FBF7EAFE82B27D4821462B46FEF7B6FEC5
:1047A000002530462946FFF71FFA0520FDF710F9CE
:1047B00080202946FFF718FA3046FDF709F93A78C4
:1047C0007DA12046FBF7ACFD207800280AD020A967
:1047D0004C1CC0B20121FFF707FA611C20780028A9
:1047E0000C46F6D1FCF7E6FF77488478C02000211C
:1047F000FFF7FAF90120FDF7EBF8002C4AD0502022
:1048000001252946FFF7F0F972202946FFF7ECF958
:10481000692420462946FFF7E7F973202946FFF768
:10482000E3F920462946FFF7DFF96A202946FFF71A
:10483000DBF975202946FFF7D7F96E202946FFF7E7
:10484000D3F967202946FFF7CFF974202946FFF7EF
:10485000CBF961202946FFF7C7F9202420462946D5
:10486000FFF7C2F920462946FFF7BEF92046294640
:10487000FFF7BAF920462946FFF7B6F92046294640
:10488000FFF7B2F920462946FFF7AEF9F548F7A140
:10489000102249E04E2001252946FFF7A5F96520A1
:1048A0002946FFF7A1F970202946FFF79DF97220EC
:1048B0002946FFF799F9692420462946FFF794F91C
:1048C00073202946FFF790F920462946FFF78CF917
:1048D0006A202946FFF788F975202946FFF784F9F1
:1048E0006E202946FFF780F967202946FFF77CF9FB
:1048F00074202946FFF778F961202946FFF774F9FB
:10490000202420462946FFF76FF920462946FFF765
:104910006BF920462946FFF767F920462946FFF73D
:1049200063F9D048D4A10D226423FEF7EFFDD648E9
:10493000FDF74EF800210F9E30460691FFF754F91F
:104940000520FDF745F810A8401C0490B0020E9019
:1049500070030890C44F079D099CFDF719F9B96AC7
:10496000401A642800D283E0FDF712F9B862FFF71D
:10497000A5F93A78511C39709200BA181063C8B280
:104980000A2823D330023880284626E05C01002024
:1049900059726120697461697361732030783736A8
:1049A0000D0A0000C800002049443A203078253024
:1049B00032580D0A00000000424D503238303A2083
:1049C00030782530325800007000002078780028B8
:1049D000284602D1080608464AD00C90C0B20D9075
:1049E0000428069F3D461DD30D9E039806409E4C0D
:1049F0003C3400252F4620460C380168384600F02C
:104A000099FA21460839096800F094FA211F0968CB
:104A100000F090FA216800F08DFA074610342D1D41
:104A2000AE42E8D105980C9E064015D0A8008E49EC
:104A30000C18216B384600F07DFA0746012E0BD08A
:104A4000616B384600F076FA0746022E04D0A16B5F
:104A5000384600F06FFA07460D98FBF7CDFF014688
:104A60003846FBF7EDFE804FF861079D099C0F9ECD
:104A7000FDF78EF8396A401A8449884200D2CFE0A7
:104A8000FDF786F83862F869FBF7B0FE00900191F7
:104A900010AD0D95112128467DA2FBF755FC069E11
:104AA0002E740127204639463246FDF769F86C4DD1
:104AB000284639463246FDF763F802210C91284614
:104AC0003246FDF75DF804210B9128463246FDF78A
:104AD00057F828460E993A46FDF752F82846089CA2
:104AE00021463A46FDF74CF83846FCF771FF284658
:104AF00021463246FDF744F83846FCF769FF284660
:104B000039463246FDF73CF828460C993246FDF707
:104B100037F828460B990E9C3246FDF731F82846A7
:104B200021463246FDF72CF8284608993A46FDF70B
:104B300027F83846FCF74CFF284608993246FDF71F
:104B40001FF83846FCF744FF3846FCF741FF0D9844
:104B50000678002E60D004980D90099839463A46A0
:104B6000FDF70EF8F006C20F28463946FDF708F8A3
:104B7000B006C20F02210C912846FDF701F870061D
:104B8000C20F04210B912846FCF7FAFFF0B2C209CC
:104B900028462146FCF7F4FF2846089C21463A4661
:104BA000FCF7EEFF3846FCF713FF00220A92284676
:104BB0002146FCF7E5FF3846FCF70AFF32463A404B
:104BC00028463946FCF7DCFFB007C20F28460C998F
:104BD000FCF7D6FF7007C20F28460B99FCF7D0FFF1
:104BE0003007C20F28460E99FCF7CAFF2846214617
:104BF0003A46FCF7C5FF3846FCF7EAFE2846214650
:104C00000A9A0E9CFCF7BCFF3846FCF7E1FE0D99B2
:104C1000481C0E78002E9FD10F9E079D099C124FB5
:104C2000FCF7B6FF796A401AC0087D2800D294E6E6
:104C3000FCF7AEFF7862F869FBF7D8FD02460B4639
:104C400020AC20461649FBF76BFB2046FBF78CFC9B
:104C500082B2642303482146099CFEF757FC7CE698
:104C6000000400505C01002070000020424D5032D2
:104C70003830204F4B0D0A004E6570726973696AB7
:104C8000756E6774610D0A00B80B00008813000090
:104C9000503A20252D392E3166206B5061000000DE
:104CA000E451000843088B421AD3002203098B42C7
:104CB00079D3030A8B425ED3030B8B4242D3030C9E
:104CC0008B4227D30902FF2212BA030C8B4202D374
:104CD0001212090203D0030B8B4233D31AE0D3E044
:104CE000411A8041401C704703460B4371D443086E
:104CF0008B42F5D3002203098B4254D3030A8B4223
:104D000039D3030B8B421DD3030C8B4202D3944641
:104D10006EE0090AC30B8B4201D3CB03C01A524188
:104D2000830B8B4201D38B03C01A5241430B8B423E
:104D300001D34B03C01A5241030B8B4201D30B0327
:104D4000C01A5241C30A8B4201D3CB02C01A52414E
:104D5000830A8B4201D38B02C01A5241430A8B4211
:104D600001D34B02C01A5241030A8B4201D30B02FA
:104D7000C01A5241CDD2C3098B4201D3CB01C01A14
:104D8000524183098B4201D38B01C01A524143091E
:104D90008B4201D34B01C01A524103098B4201D30C
:104DA0000B01C01A5241C3088B4201D3CB00C01A79
:104DB000524183088B4201D38B00C01A52414308F1
:104DC0008B4201D34B00C01A5241411A524110008C
:104DD0007047CA0F00D04942031000D340425340ED
:104DE00000229C4603098B422DD3030A8B4212D327
:104DF0008901FC2212BA030A8B420CD38901921159
:104E00008B4208D3890192118B4204D3890137D098
:104E1000921100E08909C3098B4201D3CB01C01A6A
:104E2000524183098B4201D38B01C01A524143097D
:104E30008B4201D34B01C01A524103098B4201D36B
:104E40000B01C01A5241C3088B4201D3CB00C01AD8
:104E5000524183088B4201D38B00C01A5241D9D2F0
:104E600043088B4201D34B00C01A5241411A00D271
:104E700001465241104663465B1000D340427047E2
:104E800063465B1000D3404201B50021004201D0CF
:104E9000C9430846C046C04602BDF8B5040C8BB2F3
:104EA000264682B25E43104658430D0C370C36043A
:104EB00000218019164679416E43370C360480195B
:104EC000264679416E438919F8BD00004900CA029F
:104ED0000243100000D004204A0D01D001221043EB
:104EE000044A490D914201D102210843012800D111
:104EF00005207047FF07000030380A2801D2012042
:104F0000704700207047000010B500290AD00878CB
:104F1000002807D005487844FCF7ECFB002801D0B6
:104F2000002010BD0248784410BD000006030000B8
:104F3000FE02000070B50125ED0704004C4020D4AE
:104F4000441A01D2001B0919C60D4B00F2B2FF2A08
:104F500029D01B0E2CD000020C0228432C43D31A5C
:104F6000DC40051910D2280A02D3401C6D0611D06E
:104F7000761EF6058019FF2A00DA70BDC00DC00547
:104F800070BD694000F022F801200543C541521C64
:104F9000761CE8E764089C40C90161408900E7D1BC
:104FA0000124A043E4E71B0E440200D0034870BD77
:104FB000002AFCD1C00FC00770BD00BF0000C07F39
:104FC00070B50125ED0704004C4022D4441A02D2EA
:104FD0006C40001B0919C60D4B00F2B2FF2A4BD0E2
:104FE0001B0E50D000020C02A8432C43D31ADC4005
:104FF000051B05D5AD0019D36D08761E521E37D09E
:10500000F605280A01D2801970BD70416D0603D0E3
:1050100070BD6940FFF794FF9C4009026140490060
:1050200001D0401E70BD0124A04370BD6D081DD08D
:1050300001202B0C01D12D0410302B0E01D12D029B
:1050400008302B0F01D12D01001DAB0F01D1AD0098
:10505000801CEB0F01D16D00401C361A121A6D0036
:10506000680AF5054019012A02DB70BD002070BDF9
:10507000C036300AC00770BD1B0E440201D1FF2BA1
:1050800000D1024870BD002AF0D070BD0000C07F82
:1050900003B402487844844603BC6047B5BBFFFFB5
:1050A000303132333435363738394142434445465E
:1050B0004030580030313233343536373839616258
:1050C000636465664030780004000008000000005A
:1050D0000000000200010000108182838485868721
:1050E00088898B8C8D8E8F919293959697999A9CA7
:1050F0009D9FA0A2A3A5A7A8AAACAEB0B2B3B5B716
:10510000B9BCBEC0C2C5C7C9CCCED1D4D7D9DCDFEB
:10511000E2E6E9ECF0F3F7FAFE00000002400000DE
:10512000000000A00000000005400000000000C8D2
:10513000000000000C4000000000409C0000000047
:10514000194000000020BCBE0000000034400000F8
:10515000BFC91B8E00000004B5400000504BCFD0EB
:105160006607E2CF010000006C4100003E8251AAB8
:10517000DFEEA73401000000D9420000DCB5A0E258
:105180003A301F97FFFFFFFFB4450000FD25A0C880
:10519000E9A3C14FFFFFFFFFFF3F000000000080B9
:1051A00000000000FF3F0000000000800000000041
:1051B00000000000000000000102030406070809C7
:1051C0000000000001020304030406080C1018206C
:1051D0003000000000000000040000000200000099
:1051E0000800000056696475726B69733A20252EB9
:1051F0003166206B50610D0A000000003852000833
:1052000000000020100000001C01000848520008A7
:1052100010000020D80700003C0100081C0000001E
:1052200043000000F8FFFFFF0C0000000E0000002C
:105230000F0000002E00000001000000040000002C
:08524000000020000000000046
:04000005080000C12E
:00000001FF
